:100000000C9462000C948A000C948A000C948A0070
:100010000C948A000C948A000C948A000C948A0038
:100020000C948A000C948A000C948A000C948A0028
:100030000C948A000C948A000C948A000C948A0018
:100040000C942C030C948A000C948A000C948A0063
:100050000C948A000C948A000C948A000C948A00F8
:100060000C948A000C948A000000000024002700F1
:100070002A0000000000250028002B0000000000DE
:1000800023002600290004040404040404040202DA
:100090000202020203030303030301020408102007
:1000A0004080010204081020010204081020000012
:1000B0000008000201000003040700000000000027
:1000C00000005B0511241FBECFEFD8E0DEBFCDBF1F
:1000D00011E0A0E0B1E0EAEDFEE002C005900D9273
:1000E000AA31B107D9F721E0AAE1B1E001C01D9220
:1000F000AB33B207E1F710E0C2E6D0E004C02197CD
:10010000FE010E946507C136D107C9F70E94760338
:100110000C946B070C940000833081F028F481303C
:1001200099F08230A9F008958730A9F08830C9F09D
:100130008430B1F4809180008F7D03C08091800075
:100140008F7780938000089584B58F7784BD08955C
:1001500084B58F7DFBCF8091B0008F778093B00006
:1001600008958091B0008F7DF9CFCF93DF93282F32
:1001700030E0F901E255FF4F8491F901E656FF4F57
:10018000D491F901EA57FF4FC491CC23A1F081111A
:100190000E948C00EC2FF0E0EE0FFF1FE458FF4FA1
:1001A000A591B491EC91ED2381E090E009F480E019
:1001B000DF91CF91089580E090E0FACF1F93CF9325
:1001C000DF93282F30E0F901E255FF4F8491F901C8
:1001D000E656FF4FD491F901EA57FF4FC491CC2363
:1001E000A9F0162F81110E948C00EC2FF0E0EE0F89
:1001F000FF1FEE58FF4FA591B4918FB7F894EC9183
:10020000111108C0D095DE23DC938FBFDF91CF9111
:100210001F910895DE2BF8CFCF93DF9390E0FC0180
:10022000E656FF4F24918A579F4FFC018491882303
:10023000D1F090E0880F991FFC01E859FF4FA5917C
:10024000B491FC01EE58FF4FC591D49161110EC0DD
:100250009FB7F8948C91E22FE0958E238C932881A0
:10026000E223E8839FBFDF91CF9108958FB7F89481
:10027000EC91E22BEC938FBFF6CF3FB7F8948091CF
:100280001F0190912001A0912101B091220126B57A
:10029000A89B05C02F3F19F00196A11DB11D3FBFBE
:1002A000BA2FA92F982F8827BC01CD01620F711D8D
:1002B000811D911D42E0660F771F881F991F4A9587
:1002C000D1F70895AF92BF92CF92DF92EF92FF9253
:1002D0000F931F93CF93DF936C017B018B01040F6E
:1002E000151FEB015E01AE18BF08C017D10759F00A
:1002F0006991D601ED91FC910190F081E02DC6014C
:100300000995892B79F7C501DF91CF911F910F9145
:10031000FF90EF90DF90CF90BF90AF900895089539
:1003200090E080E00895FC0101900020E9F731970A
:10033000AF01481B590BBC0183E291E00C946201B0
:100340008F929F92AF92BF920F931F93CF93DF93A1
:10035000CDB7DEB7A1970FB6F894DEBF0FBECDBF05
:1003600019A2423008F44AE08E010F5D1F4F842E1F
:10037000912CB12CA12CA50194010E944307E62FDA
:10038000B901CA01EA30F4F4E05DD801EE938D01C1
:10039000232B242B252B79F790E080E0109719F080
:1003A000CD010E949301A1960FB6F894DEBF0FBE57
:1003B000CDBFDF91CF911F910F91BF90AF909F90D4
:1003C0008F900895E95CE1CFCF93DF93EC0160E07B
:1003D0008E810E94DE0061E08E810E94DE0060E07E
:1003E0008E810E94DE008BE891E00197F1F7DF91AA
:1003F000CF910895CF92DF92EF92FF920F931F93C8
:10040000CF93DF936C017C0187E0E80EF11CD0E014
:10041000C0E0062F10E0B8010C2E02C0759567955C
:100420000A94E2F76170F70181917F010E94DE007A
:100430002196C430D10579F7C601DF91CF911F9184
:100440000F91FF90EF90DF90CF900C94E401CF924A
:10045000DF92EF92FF920F931F93CF93DF93EC0104
:10046000F62E642F8C810E94DE008D818F3F19F063
:1004700060E00E94DE000F2D10E08F8584FF25C014
:100480006E0187E0C80ED11CF12CE12CB8010E2CB6
:1004900002C0759567950A94E2F76170F601819143
:1004A0006F010E94DE00FFEFEF1AFF0A88E0E816F6
:1004B000F10461F7CE01DF91CF911F910F91FF9071
:1004C000EF90DF90CF900C94E401B80184E0759533
:1004D00067958A95E1F7CE010E94FA016F2DCE0152
:1004E000DF91CF911F910F91FF90EF90DF90CF9010
:1004F0000C94FA0140E0682F83E291E00C9427020B
:10050000CF93DF93823029F49091320198609093D9
:100510003201809336011092370180E480933801D4
:1005200080E18093390180E580933A0161E0809118
:1005300027010E940C01809128018F3F19F061E092
:100540000E940C0161E0809129010E940C01C3E22C
:10055000D1E09E01235231408091320184FD0BC0D5
:1005600084E090E021962817390744F461E08E81F9
:100570000E940C01EECF88E090E0F4CF8BE39DE089
:100580000197F1F760E0809127010E94DE0060E0B2
:10059000809129010E94DE00809128018F3F19F08F
:1005A00060E00E94DE008091320184FD39C063E08A
:1005B00083E291E00E94FA01CBE4D6E4CE010197F8
:1005C000F1F763E083E291E00E94FA012197F1F7ED
:1005D00063E083E291E00E94FA0183E592E00197F3
:1005E000F1F762E083E291E00E94FA01809132012A
:1005F00080620E947A0284E0809333018CE00E9442
:100600007A0281E00E947A028BE39FE10197F1F781
:1006100082E08093340186E0DF91CF910C947A02DE
:1006200080620E947A028BE496E40197F1F7809150
:10063000320180620E947A0283E592E00197F1F72D
:100640008091320180620E947A02D0CF41E00E9404
:10065000270281E090E008951F920F920FB60F924B
:1006600011242F933F938F939F93AF93BF938091C8
:100670001B0190911C01A0911D01B0911E013091B0
:100680001A0123E0230F2D3758F50196A11DB11D46
:1006900020931A0180931B0190931C01A0931D01CC
:1006A000B0931E0180911F0190912001A091210122
:1006B000B09122010196A11DB11D80931F0190935D
:1006C0002001A0932101B0932201BF91AF919F918E
:1006D0008F913F912F910F900FBE0F901F90189503
:1006E00026E8230F0296A11DB11DD2CF789484B5C0
:1006F000826084BD84B5816084BD85B5826085BD1E
:1007000085B5816085BD80916E00816080936E00AB
:10071000109281008091810082608093810080919D
:10072000810081608093810080918000816080934E
:1007300080008091B10084608093B1008091B0000E
:1007400081608093B00080917A00846080937A0009
:1007500080917A00826080937A0080917A00816033
:1007600080937A0080917A00806880937A0010925A
:10077000C10061E085E00E940C0160E081E00E9420
:100780000C0160E080E00E940C0182E00E94800287
:1007900003EB10E0C0E0D0E081E00E94B5000197DB
:1007A00049F480910001909101010A969093010112
:1007B0008093000180E00E94B500019749F4809188
:1007C0000001909101010A9790930101809300012B
:1007D000E0900001F090010161E085E00E940C01D1
:1007E000E114F10409F087C060E085E00E94DE00BA
:1007F000E1E0809136018111E0E0E195F0E0ED5D0E
:10080000FE4F84898F5F80680E947A02C090000149
:10081000D09001010D2C000CEE08FF084AE0C70142
:10082000B601F7FE0EC041E06DE283E291E00E9466
:10083000270266277727CB016C197D098E099F094E
:100840004AE00E94A001E0913601E23008F09BC02E
:10085000E150F0E0ED5DFE4F84898C5F80680E947E
:100860007A026091000170910101072E000C880B43
:10087000990B0E941C0620E030E040E85BE30E94F8
:10088000D1066B017C014B015C01AC019B010E9414
:100890003E07882309F479C08EE091E00E9493011D
:1008A0000E943D014B015C0180EDC82E87E0D82EEF
:1008B000E12CF12C0E943D01681979098A099B09F4
:1008C000683E734081059105A8F321E0C21AD10862
:1008D000E108F10888EE880E83E0981EA11CB11C87
:1008E000C114D104E104F10429F7209709F454CF8D
:1008F0000E94000051CF2FEFE216F10411F461E0E5
:1009000074CFF8018491833021F148F48130B9F03B
:100910008230D1F0F0E8EF16F1048CF765CF873024
:1009200011F1883041F18430A9F780918000806214
:1009300080938000F0928B00E0928A0059CF84B5BA
:10094000806884BDE7BC54CF84B5806284BDE8BCB8
:100950004FCF80918000806880938000F092890062
:10096000E092880045CF8091B00080688093B0000D
:10097000E092B3003DCF8091B00080628093B000E0
:10098000E092B40035CFE1E064CF26013701E8946E
:1009900077F82FEF3FEF4FE75FE7C301B2010E9407
:1009A0003E0781110DC02FEF3FEF4FE75FE7C30117
:1009B000B2010E94E60518161CF482E191E06ECFA8
:1009C0002FEF3FEF4FE75FE4C701B6010E94CC066F
:1009D00018161CF486E191E061CF2FEF3FEF4FE74F
:1009E0005FECC701B6010E94E60587FDF3CF20E06A
:1009F00030E0A901C701B6010E94E60587FF0CC0DF
:100A000041E06DE283E291E00E9427024601570136
:100A1000B7FAB094B7F8B0942AE037ED43EA5BE355
:100A2000C501B4010E947A054B015C010E94EB05EF
:100A30006B017C010E941A069B01AC01C501B40147
:100A40000E9479054B015C014AE0C701B6010E9492
:100A5000A00141E06EE283E291E00E94270220E0E3
:100A600030E040E251E4C501B4010E94D1064B01DF
:100A70005C010E94EB056B01F12CE12C4AE0C701FF
:100A8000B6010E94A001C701B6010E941A069B018F
:100A9000AC01C501B4010E94790520E030E040E2DC
:100AA00051E40E94D1060E94EB0590E080E04AE00C
:100AB0000E94A001F5CEE3E2F1E01382128286E00B
:100AC00091E0918380838DE084838FEF85838CE038
:100AD00086838BE087838AE0808789E0818788E04E
:100AE00082871386148615861686178681E00C94F5
:100AF00080025058BB27AA270E9491050C949206A9
:100B00000E94840638F00E948B0620F039F49F3F43
:100B100019F426F40C9481060EF4E095E7FB0C948E
:100B20007B06E92F0E94A30658F3BA1762077307E2
:100B30008407950720F079F4A6F50C94C5060EF409
:100B4000E0950B2EBA2FA02D0B01B90190010C01DD
:100B5000CA01A0011124FF27591B99F0593F50F4F5
:100B6000503E68F11A16F040A22F232F342F44274D
:100B7000585FF3CF469537952795A795F040539545
:100B8000C9F77EF41F16BA0B620B730B840BBAF015
:100B90009150A1F0FF0FBB1F661F771F881FC2F780
:100BA0000EC0BA0F621F731F841F48F48795779594
:100BB0006795B795F7959E3F08F0B0CF9395880F4E
:100BC00008F09927EE0F9795879508950E9457068C
:100BD00008F481E008950E94AB0688F09F5798F0D2
:100BE000B92F9927B751B0F0E1F0660F771F881F32
:100BF000991F1AF0BA95C9F714C0B13091F00E944C
:100C0000C506B1E008950C94C506672F782F882794
:100C1000B85F39F0B93FCCF3869577956795B39572
:100C2000D9F73EF490958095709561957F4F8F4FE1
:100C30009F4F0895E89409C097FB3EF490958095E6
:100C4000709561957F4F8F4F9F4F9923A9F0F92F92
:100C500096E9BB279395F695879577956795B79510
:100C6000F111F8CFFAF4BB0F11F460FF1BC06F5FF6
:100C70007F4F8F4F9F4F16C0882311F096E911C008
:100C8000772321F09EE8872F762F05C0662371F029
:100C900096E8862F70E060E02AF09A95660F771F3D
:100CA000881FDAF7880F9695879597F90895990F19
:100CB0000008550FAA0BE0E8FEEF16161706E80726
:100CC000F907C0F012161306E407F50798F0621B47
:100CD000730B840B950B39F40A2661F0232B242B1C
:100CE000252B21F408950A2609F4A140A6958FEF3B
:100CF000811D811D089597F99F6780E870E060E08D
:100D000008959FEF80EC089500240A9416161706A4
:100D100018060906089500240A94121613061406EC
:100D200005060895092E0394000C11F4882352F04F
:100D3000BB0F40F4BF2B11F460FF04C06F5F7F4F07
:100D40008F4F9F4F089557FD9058440F551F59F0EE
:100D50005F3F71F04795880F97FB991F61F09F3FA8
:100D600079F087950895121613061406551FF2CFD1
:100D70004695F1DF08C0161617061806991FF1CF21
:100D800086957105610508940895E894BB27662748
:100D90007727CB0197F908950E94570608F48FEF43
:100DA00008950E94E4060C9492060E94840638F08E
:100DB0000E948B0620F0952311F00C947B060C9476
:100DC000810611240C94C6060E94A30670F3959F19
:100DD000C1F3950F50E0551F629FF001729FBB2732
:100DE000F00DB11D639FAA27F00DB11DAA1F649FCE
:100DF0006627B00DA11D661F829F2227B00DA11D81
:100E0000621F739FB00DA11D621F839FA00D611D06
:100E1000221F749F3327A00D611D231F849F600D27
:100E2000211D822F762F6A2F11249F5750409AF050
:100E3000F1F088234AF0EE0FFF1FBB1F661F771FDC
:100E4000881F91505040A9F79E3F510580F00C94A7
:100E50007B060C94C6065F3FE4F3983ED4F3869578
:100E600077956795B795F795E7959F5FC1F7FE2B47
:100E7000880F911D9695879597F908950E945706BA
:100E8000880B990B0895A1E21A2EAA1BBB1BFD012A
:100E90000DC0AA1FBB1FEE1FFF1FA217B307E40759
:100EA000F50720F0A21BB30BE40BF50B661F771FB1
:100EB000881F991F1A9469F7609570958095909591
:100EC0009B01AC01BD01CF010895EE0FFF1F0590FE
:0A0ED000F491E02D0994F894FFCF8F
:100EDA006400000000002603620190018F016E6128
:0A0EEA006E00696E66006F76660008
:00000001FF
